:040A380002080000B0
:03001B00020A25B1
:100A2500C0E0758D9E758B580509E50970020508AE
:030A3500D0E032DC
:10092D00D287C28D758CEF758AB9D28C308DFDC290
:0F093D0087C28D758CEF758AB9D28C308DFD22F3
:10094C00D287C28D758CF1758A88D28C308DFDC2A0
:0F095C0087C28D758CF1758A88D28C308DFD2203
:10096B00D287C28D758CF2758AFAD28C308DFDC20E
:0F097B0087C28D758CF2758AFAD28C308DFD2271
:10098A00D287C28D758CF3758ACBD28C308DFDC21D
:0F099A0087C28D758CF3758ACBD28C308DFD2280
:1009A900D287C28D758CF5758A26D28C308DFDC2A1
:0F09B90087C28D758CF5758A26D28C308DFD2204
:1009C800D287C28D758CF6758A3CD28C308DFDC26B
:0F09D80087C28D758CF6758A3CD28C308DFD22CE
:1009E700D287C28D758CF7758A51D28C308DFDC236
:0F09F70087C28D758CF7758A51D28C308DFD2299
:100A0600D287C28D758CF7758ADCD28C308DFDC28B
:0F0A160087C28D758CF7758ADCD28C308DFD22EE
:10080000758911D2ABD2AFD28EC3E5099428E50821
:1008100064809480500512092D80EEC3E50994642C
:10082000E50864809480500512094C80EEC3E50908
:1008300094B4E50864809480500512096B80EEC37F
:10084000E50994DCE50864809480500512098A80EB
:10085000EEC3E509942CE5086480948150051209E3
:10086000A980EEC3E5099468E50864809481500589
:100870001209C880EEC3E50994B8E5086480948144
:1008800050051209E780EEC3E50994E0E5086480AD
:1008900094815005120A0680EEE4F508F509020875
:0108A000094E
:030000000208A152
:0C08A100787FE4F6D8FD7581090208E8B4
:1008AD00020800E493A3F8E493A34003F68001F259
:1008BD0008DFF48029E493A3F85407240CC8C3334C
:1008CD00C4540F4420C8834004F456800146F6DF1B
:1008DD00E4800B0102040810204080900A38E47E69
:1008ED00019360BCA3FF543F30E509541FFEE49310
:1008FD00A360010ECF54C025E060A840B8E493A3D7
:10090D00FAE493A3F8E493A3C8C582C8CAC583CA01
:10091D00F0A3C8C582C8CAC583CADFE9DEE780BEB9
:010A3C0000B9
:00000001FF
