:03000000020BE60A
:0C0BE600787FE4F6D8FD75813A020C2DF2
:100DB300566F6C742E3A2000206D560054656D708A
:080DC3002E3A200020B043008D
:100DE100C1000608000000000000060E000000001F
:020DF100000000
:100D3300E4F5A0C282C280C2817F38FE120DF41294
:100D43000D8F7F067E00120DF4120D8F7F0C7E0037
:100D5300120DF4120D8F7F017E00120DF4120D8F10
:070D63007F807E00020DF409
:040D8F007F047E005F
:100D9300E4FDFCC3ED9FEC9E5015E4FBFA0BBB0096
:0F0DA300010ABA01F8BB7EF50DBD00010C80E41A
:010DB200221E
:100A9B008E2B8F2C8B2D8A2E892F7C277D10120A63
:100AAB0012EF24301209DEAE2BAF2C7C277D1012F7
:100ABB000A127E037FE8CFCDCFCECCCE120A12EF37
:100ACB002430AB2DAA2EA92F9000011209F0AE2BCA
:100ADB00AF2C7C037DE8120A127E007F64CFCDCF52
:100AEB00CECCCE120A12EF2430AB2DAA2EA92F900A
:100AFB0000021209F0AE2BAF2C7C007D64120A129F
:100B0B007E007F0ACFCDCFCECCCE120A12EF24308F
:100B1B00AB2DAA2EA92F9000031209F0AE2BAF2CF0
:100B2B007C007D0A120A12ED2430AB2DAA2EA92FC0
:060B3B009000040209F025
:100DF400C280C281D2828FA07F0A7E00120D93C26C
:020E0400822248
:100E0600D280C281D2828FA07F0A7E00120D93C249
:020E1600822236
:100D6A008B2B8A2C892DAB2BAA2CA92D1209C56095
:100D7A0013052DE52D7002052C14F91209C5FF1271
:050D8A000E0680E222CC
:0C0E180075C33F43B104D2AF43C3402276
:080CD7008F3A8E398D388C37FD
:100CDF00C2007810120A75E48FC53000FDA914C246
:100CEF0000AF3AAE39AD38AC377808120A758FC5F8
:100CFF003000FDAB14C200E53AFF8FC53000FDADEB
:100D0F0014EB7B00FA7E00E97810C333CE33CED8D4
:100D1F00F92BFFEE3AFE7C00EF2DFFEC3EFE3395F4
:030D2F00E0FDFCE8
:010D3200229E
:03004B00020DCBD8
:100DCB00C0E0C0D0E5C454F02480700585C514D2B2
:060DDB0000D0D0D0E03290
:030E2400D2942243
:020C7200AB07CE
:100C7400E4F532F531753001F52FEF75F010A47EEF
:100C8400005470FFEE3395E0FDFCEF4480FFED78F7
:100C940008120A888F368E358D348C33E53225362A
:100CA400FFE5313535FEE5303534FDE52F3533FCD0
:100CB400C294120CD78F2E8E2D8D2C8C2BD294E5B2
:100CC4002EF52EE52D5403F52DE4F52CF52BAE2D44
:020CD400AF2E41
:010CD60022FB
:100B4100E4F521F522F523F524F525F526120E18F5
:060B5100120E24120D3308
:100B57007F04120C728E278F287F03120C728E2946
:100B67008F2AAC27AD28E412090B7B827A73794E62
:100B770078401208001209448E238F24AC29AD2A2D
:100B8700E412090B7B827A73794E784012080012BF
:100B970009448E258F267B007A00790E120A9B7BEB
:100BA700007A007908AF26AE25120A9B7F017E00E6
:100BB700120DF47F807E00120DF47BFF7A0D79B35E
:100BC700120D6A7B007A007908120D6A7BFF7A0D95
:0C0BD70079BB120D6A7F2C7E01120D9379
:030BE300020B57AB
:10080000EC4D6011E8497017ED33EC3304600DE4F2
:10081000FCFFFEFD22E933E8330470F80209B01250
:10082000097B58046009E4CC248150062850090251
:1008300009BA2840030209B7C0E0EB4A7044B98006
:1008400006D0E0FB0209A6EF4E701CBD8008EBFF4E
:10085000EAFEE9FD80EBE98DF0A4FEE5F00208E98F
:10086000E9CDF9EAFEEBFFEF89F0A4FCE5F0CE89D3
:10087000F0A42EFFE435F0CD89F0A42DFEE435F090
:100880008067EF4E7005BD80D780C3EF8BF0A4ACBE
:10089000F0EE8BF0A42CFCE435F0F8EF8AF0A42CF9
:1008A000E5F038FCE433CB8DF0A42CFCE5F03BF80C
:1008B000EE8AF0A42CFCE5F038F8E433CF89F0A4FC
:1008C0002CFCE5F038CF3400CE89F0A42FFFE5F002
:1008D0003EFEE433C98DF0A42EFEE5F039CD8AF05A
:1008E000A42FFFE5F03EFEE43DFD33D0E0FB5007D2
:1008F0000BBB000F0209BAEC2CFCEF33FFEE33FE0A
:06090000ED33FD02099237
:1009060075F020800E75F010800575F0087D007E6C
:10091600007F003392D530D503120A67EC334010BE
:10092600EF33FFEE33FEED33FDEC33FCD5F0ED2275
:0E093600E5F0247EA2D513CC92E7CDCEFF22B1
:10094400EDD2E7CD33EC3392D524814006E4FFFEAB
:10095400FDFC22FCE4CFCECDCC24E0501174FF800A
:10096400EDC3CC13CCCD13CDCE13CECF13CF0470A7
:07097400F030D5DE020A6736
:10097B00E9D2E7C933E833F892D5EDD2E7CD33ECC2
:07098B0033FC5002B2D5223B
:10099200EC30E7100FBF000C0EBE00080DBD0004C6
:1009A2000BEB6014A2D5EB13FCED92E7FD2274FF72
:1009B200FCFDFEFF22E480F8A2D574FF13FC7D80CB
:0309C200E480EFDF
:100BF200020B41E493A3F8E493A34003F68001F2CD
:100C020008DFF48029E493A3F85407240CC8C33303
:100C1200C4540F4420C8834004F456800146F6DFD2
:100C2200E4800B0102040810204080900DE1E47E74
:100C3200019360BCA3FF543F30E509541FFEE493C7
:100C4200A360010ECF54C025E060A840B8E493A38E
:100C5200FAE493A3F8E493A3C8C582C8CAC583CAB9
:100C6200F0A3C8C582C8CAC583CADFE9DEE780BE71
:010DF30000FF
:1009C500BB010689828A83E0225002E722BBFE0230
:0909D500E32289828A83E4932263
:1009DE00BB010689828A83F0225002F722BBFE01F8
:0209EE00F322F2
:1009F000F8BB010DE58229F582E5833AF583E8F03D
:100A0000225006E92582C8F622BBFE05E92582C8E8
:020A1000F222D0
:100A1200BC000BBE0029EF8DF084FFADF022E4CCC8
:100A2200F875F008EF2FFFEE33FEEC33FCEE9DEC91
:100A3200984005FCEE9DFE0FD5F0E9E4CEFD22EDD7
:100A4200F8F5F0EE8420D21CFEADF075F008EF2F21
:100A5200FFED33FD4007985006D5F0F222C398FD12
:050A62000FD5F0EA22AF
:0E0A6700C3E49FFFE49EFEE49DFDE49CFC22A0
:100A7500E8600FECC313FCED13FDEE13FEEF13FF5F
:030A8500D8F12283
:100A8800E8600FEFC333FFEE33FEED33FDEC33FCCC
:030A9800D8F12270
:00000001FF
