:10098F0020202020536120286C6F772920202020E1
:10099F0000202020202020205265202020202020F1
:1009AF0020002020202020202047612020202020F0
:1009BF00202000202020202020204D6120202020DA
:1009CF0020202000202020202020205061202020C7
:1009DF00202020200020202020202020446861207B
:1009EF00202020202000202020202020204E6920A1
:1009FF002020202020200020202020536120286844
:100A0F006967682920202000202020202053696C4E
:100A1F00656E6365202020200020416E7570616D2A
:0A0A2F002773204D757369632000E2
:040D7D00020D000F54
:100B5F00E4F5A0C282C280C2817F38FE120D361228
:100B6F000BE27F067E00120D36120BE27F0C7E0029
:100B7F00120D36120BE2120D32120BE27F807E0045
:030B8F00020D361E
:040BE2007F047E000E
:100BE600E4FDFCC3ED9FEC9E5015E4FBFA0BBB0045
:0F0BF600010ABA01F8BB7EF50DBD00010C80E4C9
:010C050022CC
:040D32007F017E00BF
:100D3600C280C281D2828FA07F0A7E00120BE6C2D9
:020D4600822207
:100D5B00D280C281D2828FA07F0A7E00120BE6C2A4
:020D6B008222E2
:100BBD008B0A8A0B890CAB0AAA0BA90C120D1960B2
:100BCD0013050CE50C7002050B14F9120D19FF122B
:050BDD000D5B80E22227
:100B9200120B5F75891175B00F7BFF7A0A792812E3
:100BA2000BBD120D48120CFE1208D98E088F0912C5
:0B0BB2000A39AF09AE0812080080E706
:100D4800C2B4C2B5C2B6C2B7A2B282B382B182B0CF
:030D580050F62230
:100CFE00A2B282B382B182B040F6120D6DA2B28260
:0B0D0E00B382B182B05003120D4822E6
:1008D900C2B4D2B5D2B6D2B7A2B282B382B182B013
:1008E900401E20B3057E007F012220B2057E007FD5
:1008F900022220B1057E007F032220B00302098B6A
:10090900D2B4C2B5D2B6D2B7A2B282B382B182B0E2
:10091900401D20B3057E007F042220B2057E007FA2
:10092900052220B1057E007F062220B0028053D225
:10093900B4D2B5C2B6D2B7A2B282B382B182B04044
:100949001D20B3057E007F072220B2057E007F08A7
:100959002220B1057E007F092220B0028024D2B472
:10096900D2B5D2B6C2B7A2B282B382B182B04015B3
:1009790020B302800D20B202800820B1028003203A
:06098900B003E4FEFF22B2
:100D6D00C28F758BECE4F58DD28E308FFDC28E2245
:10080000EE60030208CBEF14B4090040030208CBEA
:1008100090081E75F003A4C58325F0C583730208F4
:100820003902084802085902086A02087B02088C4B
:1008300002089D0208AE0208BFA2B282B382B18252
:10084000B04036120C0680F1A2B282B382B182B0FF
:100850004005120C2580F1807CA2B282B382B18265
:10086000B04005120C4480F1806BA2B282B382B119
:1008700082B04005120C6380F1805AA2B282B3822A
:10088000B182B04005120C8280F18049A2B282B3DD
:1008900082B182B04005120CA180F18038A2B282F0
:1008A000B382B182B04005120CC080F18027A2B2A1
:1008B00082B382B182B04005120CDF80F18016A2B3
:1008C000B282B382B182B050F6800AA2B282B38201
:0908D000B182B050F6120D322283
:100A39008F828E83120D327F807E00120D36120B4B
:100A4900E2AE83AF82EE7078EF14B4090050719072
:100A59000A6675F003A4C58325F0C58373020A816C
:100A6900020A89020A91020A99020AA1020AA90242
:100A79000AB1020AB9020AC17BFF7A09798F804655
:100A89007BFF7A0979A0803E7BFF7A0979B18036AC
:100A99007BFF7A0979C2802E7BFF7A0979D3802678
:100AA9007BFF7A0979E4801E7BFF7A0979F5801644
:100AB9007BFF7A0A7906800E7BFF7A0A791780060E
:0A0AC9007BFF7A0A7928120BBD2288
:100C0600D287C28D758CEF758AB9D28C308DFDC2B4
:0F0C160087C28D758CEF758AB9D28C308DFD2217
:100C2500D287C28D758CF1758A88D28C308DFDC2C4
:0F0C350087C28D758CF1758A88D28C308DFD2227
:100C4400D287C28D758CF2758AFAD28C308DFDC232
:0F0C540087C28D758CF2758AFAD28C308DFD2295
:100C6300D287C28D758CF3758ACBD28C308DFDC241
:0F0C730087C28D758CF3758ACBD28C308DFD22A4
:100C8200D287C28D758CF5758A26D28C308DFDC2C5
:0F0C920087C28D758CF5758A26D28C308DFD2228
:100CA100D287C28D758CF6758A3CD28C308DFDC28F
:0F0CB10087C28D758CF6758A3CD28C308DFD22F2
:100CC000D287C28D758CF7758A51D28C308DFDC25A
:0F0CD00087C28D758CF7758A51D28C308DFD22BD
:100CDF00D287C28D758CF7758ADCD28C308DFDC2B0
:0F0CEF0087C28D758CF7758ADCD28C308DFD2213
:03000000020AD31E
:0C0AD300787FE4F6D8FD75810E020B1A46
:100D1900BB010689828A83E0225002E722BBFE02D8
:090D2900E32289828A83E493220B
:100ADF00020B92E493A3F8E493A34003F68001F290
:100AEF0008DFF48029E493A3F85407240CC8C33318
:100AFF00C4540F4420C8834004F456800146F6DFE7
:100B0F00E4800B0102040810204080900D7DE47EEC
:100B1F00019360BCA3FF543F30E509541FFEE493DB
:100B2F00A360010ECF54C025E060A840B8E493A3A2
:100B3F00FAE493A3F8E493A3C8C582C8CAC583CACD
:100B4F00F0A3C8C582C8CAC583CADFE9DEE780BE85
:010D81000071
:00000001FF
