:10088C004C4344204F6B002A2A2A2A2A2A2A2A2A35
:10089C002A2A2A2A2A2A2A2A2A2A2A2A2A2A2A0DC9
:1008AC000A002A2A2A2A2A2A38303531205465731C
:1008BC0074732A2A2A2A2A2A2A2A0D0A00507265B7
:1008CC007373203120666F72204C4344207465731F
:1008DC00740D0A005072657373203220666F72209B
:1008EC004C454420746573740D0A00496E636F7235
:1008FC0072656374206B65792070726573736564BF
:03090C000D0A00D1
:040AC100C101C100AE
:10096600E4F5A0C282C280C2817F38FE120A6B12F1
:1009760009ED7F067E00120A6B1209ED7F0C7E00E0
:10098600120A6B1209ED7F017E00120A6B1209ED45
:070996007F807E00020A6B66
:0409ED007F047E0005
:1009F100E4FDFCC3ED9FEC9E5015E4FBFA0BBB003C
:0F0A0100010ABA01F8BB7EF50DBD00010C80E4BF
:010A100022C3
:100A6B00C280C281D2828FA07F0A7E001209F1C29E
:020A7B008222D5
:100A7D00D280C281D2828FA07F0A7E001209F1C27C
:020A8D008222C3
:1009C8008B098A0A890BAB09AA0AA90B120A526079
:1009D80013050BE50B7002050A14F9120A52FF12EF
:0509E8000A7D80E222FF
:100A8F00758920758DCC759850D28ED2ACD2AF228D
:080AB9008F993001FDC20122FA
:06099D007BFF7A0879934C
:1009A3008B098A0A890BAB09AA0AA90B120A52609E
:1009B30013050BE50B7002050A14F9120A52FF1214
:0509C3000AB980E222E8
:090AAF00E4FF3000FDC200AF9924
:010AB800221B
:03002300020A9F2F
:100A9F00309905C299D20132309804C298D20032EF
:100A34007F807E00120A6B7BFF7A08798C1209C8CA
:0E0A44007FD07E071209F17F017E00020A6B4F
:100A1100D2977FF47E011209F1D297D2961209F191
:100A2100D296D2951209F1D295D2941209F1D294AB
:030A31000209F1C6
:10090F00E4F50875900F120966120A8F12099D7B84
:10091F00FF7A0879AE1209A312099D7BFF7A087935
:10092F00C91209A37BFF7A0879E01209A3120AAF53
:10093F008F08E50824CE600804700A120A34800E6E
:10094F00120A1180097BFF7A0879F71209A37F64D5
:07095F007E001209F180D6B1
:03000000020800F3
:0C080000787FE4F6D8FD758120020847DF
:100A5200BB010689828A83E0225002E722BBFE02A2
:090A6200E32289828A83E49322D5
:10080C0002090FE493A3F8E493A34003F68001F2EA
:10081C0008DFF48029E493A3F85407240CC8C333ED
:10082C00C4540F4420C8834004F456800146F6DFBC
:10083C00E4800B0102040810204080900AC1E47E81
:10084C00019360BCA3FF543F30E509541FFEE493B1
:10085C00A360010ECF54C025E060A840B8E493A378
:10086C00FAE493A3F8E493A3C8C582C8CAC583CAA3
:10087C00F0A3C8C582C8CAC583CADFE9DEE780BE5B
:010AC5000030
:00000001FF
