:1008A600496E7374694B614261617020202020009B
:1008B6004B61756E5F5F48355F5F483520202000CD
:10080000E4F5A0C282C280C2817F38FE1208DF12E6
:10081000083C7F067E001208DF12083C7F0C7E0039
:100820001208DF12083C7F017E001208DF12083C2C
:070830007F807E000208DF5B
:090837007E001208DF7F047E0040
:10084000E4FDFCC3ED9FEC9E5015E4FBFA0BBB00EE
:0F085000010ABA01F8BB7EF50DBD00010C80E472
:01085F002276
:1008DF00C280C281D2828FA07F0A7E00120840C2DE
:0208EF00822263
:1008F100D280C281D2828FA07F0A7E00120840C2BC
:02090100822250
:100860008B088A09890AAB08AA09A90A1208C66076
:1008700013050AE50A7002050914F91208C6FF12E9
:0508800008F180E222F6
:100885001208007F801208377BFF7A0879A61208C4
:10089500607FC01208377BFF7A0879B6120860803E
:0108A500FE54
:03000000020903EF
:0C090300787FE4F6D8FD75810A020885B3
:1008C600BB010689828A83E0225002E722BBFE0230
:0908D600E32289828A83E4932263
:00000001FF
