:1008DC002020202020496E70757420313A20202071
:1008EC00002020202020496E70757420323A202080
:1008FC00200020202050726564696374696F6E3A21
:10090C002020002020202020436C61737320312094
:10091C00202020002020202020436C617373203283
:05092C00202020200046
:10093100E4F5A0C282C280C2817F38FE1209E312AF
:10094100096F7F067E001209E312096F7F0C7E009A
:100951001209E312096F7F017E001209E312096F88
:070961007F807E000209E324
:0B0968007F017E001209E37F047E0087
:10097300E4FDFCC3ED9FEC9E5015E4FBFA0BBB00BA
:0F098300010ABA01F8BB7EF50DBD00010C80E43E
:010992002242
:1009E300C280C281D2828FA07F0A7E00120973C2A5
:0209F30082225E
:1009F500D280C281D2828FA07F0A7E00120973C283
:020A050082224B
:1009BE008B168A178918AB16AA17A91812099360F5
:1009CE00130518E5187002051714F9120993FF1292
:0509DE0009F580E22292
:100800007508FF7509DC750A00750B05750C007518
:100810000D07E4F50EF50FF510F511F512F513F5CA
:1008200014F51575900F1209317F8012096A7BFF4C
:100830007A0879DC1209BE7F107E27120973AF9007
:10084000750E008F0F1209687F0212096C7BFF7A08
:100850000879ED1209BE7F107E27120973AF9075DB
:1008600010008F111209687BFF7A0879FE1209BE09
:10087000AC0AAD0BAE0EAF0F1209ACE5092FFBE5CC
:10088000083EFAAC0CAD0DAE10AF111209ACEF2B57
:10089000F513EE3AF512C364809480501A75140073
:1008A0007515017FC012096A7BFF7A09790F120959
:1008B000BE7F107E278021C3E51264809480401B98
:1008C0007514007515027FC012096A7BFF7A0979D9
:0B08D000201209BE7FA07E8612097373
:0108DB0022FA
:03000000020A07EA
:0C0A0700787FE4F6D8FD75811802080025
:10099300BB010689828A83E0225002E722BBFE0262
:0909A300E32289828A83E4932295
:1009AC00EF8DF0A4A8F0CF8CF0A428CE8DF0A42E5F
:0209BC00FE2219
:00000001FF
