:100F56002020202020496E70757420313A202020F0
:100F6600002020202020496E70757420323A2020FF
:100F760020005028436C6173732031293A005028B1
:100F8600436C6173732032293A00202020202043CD
:0B0F96006C61737320322020202000CB
:0C109800022200000224000002260000DA
:100FE100E4F5A0C282C280C2817F38FE1210741261
:100FF100102B7F067E0012107412102B7F0C7E00C6
:1010010012107412102B7F017E0012107412102B1B
:071011007F807E00021074D5
:100FA100E5092430FFE43508FEE50B2430FDE43586
:0B0FB1000AFCE50D2430FBE4350CFACF
:100FBC008E1C8F1D8C1E8D1F8A208B217F30121052
:100FCC00867F2E121086AF1D121086AF1F12108650
:050FDC00AF21021086A8
:101018007F017E001210747F047E0012102F7F0261
:071028001210747F047E002A
:10102F00E4FDFCC3ED9FEC9E5015E4FBFA0BBB00F7
:0F103F00010ABA01F8BB7EF50DBD00010C80E47B
:01104E00227F
:10107400C280C281D2828FA07F0A7E0012102FC24A
:021084008222C6
:10108600D280C281D2828FA07F0A7E0012102FC228
:021096008222B4
:10104F008B1C8A1D891EAB1CAA1DA91E120BAA6020
:10105F0013051EE51E7002051D14F9120BAAFF12CF
:05106F00108680E22262
:100C8E00E4F508F509F50AF50BF50CF50D750EFFF3
:100C9E00750FDCF510751105F512751307F514F5C2
:100CAE0015FBFAFFFEF519F518F517F516F51AF5F9
:100CBE001BF582F58375900F120FE17F807E001277
:100CCE0010287BFF7A0F795612104F7F107E271255
:100CDE00102FAF907514008F151210187BFF7A0F1E
:100CEE00796712104F7F107E2712102FAF907A0067
:100CFE00AB07AC10AD11AE14AF15120BC3E50F2F31
:100D0E00F582E50E3EF583AC12AD137E00AF0312F5
:100D1E000BC3EF2582FFEE3583FEC3E49FFDE49EF9
:100D2E00FC120AA3120E68E4FBFA7980783F1208CF
:100D3E0007A804A905AA06AB07E4FFFE7D807C3F49
:100D4E00120A018F198E188D178C16AB19AA18A9B5
:100D5E0017A816E4FFFE7D807C3F120803E4FBFA21
:100D6E00797A78441208F8120ADC8E838F827C001E
:100D7E007D64120BD58E088F097C007D64AF82AE28
:100D8E0083120BD57E007F0ACFCDCFCECCCE120BE9
:100D9E00D58E0A8F0B7C007D0AAF82AE83120BD5E7
:100DAE008C0C8D0D1210187BFF7A0F797812104F64
:100DBE0012102B120FA112102B7FC01210287BFFC6
:100DCE007A0F798412104F12102BE4FF7D7A7C4437
:100DDE00AB19AA18A917A8161208F8120ADC8E83E6
:100DEE008F827C007D64120BD58E088F097C007D6E
:100DFE0064AF82AE83120BD57E007F0ACFCDCFCEED
:100E0E00CCCE120BD58E0A8F0BAE83AF827C007DBB
:100E1E000A120BD58C0C8D0D120FA17F107E27029E
:020E2E00102F83
:10080000020B48E86480F8E933E83360110460F0D3
:10081000ED33EC337009E8FCE9FDEAFEEBFF22045E
:1008200060DED3EB9FEA9EE99DE8C2E78CF0C2F759
:1008300095F0400CE8CCF8E9CDF9EACEFAEBCFFB25
:10084000120B1385D0F05804700320D5B3E8047060
:10085000075002B2D5020B5292D5EC0460F7E4CCFB
:10086000C0E0C398F8603B94186008400DD0E0FBEE
:10087000020B2AE4FBFAC9FC8028E830E406E4C94C
:10088000FBE4CAFCE830E305E4C9CACBFCE8540742
:100890006010F8C3E913F9EA13FAEB13FBEC13FC4D
:1008A000D8F130F52FC3E49CFCEF9BFFEE9AFEEDF0
:1008B00099FDD0E0FBEF4E4D4C701222DB03020B92
:1008C0004FEC2CFCEF33FFEE33FEED33FDED30E764
:1008D000EB020B2AEF2BFFEE3AFEED39FDD0E0FBE9
:1008E00050130BBB0003020B52ED13FDEE13FEEF92
:0808F00013FFEC13FC020B2ABC
:1008F800EC4D6011E8497017ED33EC3304600DE4FA
:10090800FCFFFEFD22E933E8330470F8020B4812BD
:100918000B1358046009E4CC2481500628500902BE
:100928000B52284003020B4FC0E0EB4A7044B980D9
:1009380006D0E0FB020B3EEF4E701CBD8008EBFFBB
:10094800EAFEE9FD80EBE98DF0A4FEE5F00209E19D
:10095800E9CDF9EAFEEBFFEF89F0A4FCE5F0CE89DA
:10096800F0A42EFFE435F0CD89F0A42DFEE435F097
:100978008067EF4E7005BD80D780C3EF8BF0A4ACC5
:10098800F0EE8BF0A42CFCE435F0F8EF8AF0A42C00
:10099800E5F038FCE433CB8DF0A42CFCE5F03BF813
:1009A800EE8AF0A42CFCE5F038F8E433CF89F0A403
:1009B8002CFCE5F038CF3400CE89F0A42FFFE5F009
:1009C8003EFEE433C98DF0A42EFEE5F039CD8AF061
:1009D800A42FFFE5F03EFEE43DFD33D0E0FB5007D9
:1009E8000BBB000F020B52EC2CFCEF33FFEE33FE77
:0609F800ED33FD020B2AA5
:1009FE00020B52EC5D046005E859047003020B48CB
:100A0E00120B13580460F6EC4860F2EC7004FDFE15
:100A1E00FF22C860DB2481C85009C39860025006CB
:100A2E00020B4F9850CAF582E9294B4A7005AB82EA
:100A3E00020B3E75F0007C1A7880C3EF9BEE9AEDA8
:100A4E0099400DC3EF9BFFEE9AFEED99FDE842F043
:100A5E00DC23ACF0D0E0FFD0E0FED0E0FDAB822096
:100A6E00E7101BEB60BAEC2CFCEF33FFEE33FEED20
:100A7E0033FD020B2AE803F830E705C0F075F000ED
:100A8E00EF2FFFEE33FEED33FD40B830E7C280AA04
:100A9E0075F020800E75F010800575F0087D007ED3
:100AAE00007F003392D530D503120C0BEC3340107F
:100ABE00EF33FFEE33FEED33FDEC33FCD5F0ED22DC
:0E0ACE00E5F0247EA2D513CC92E7CDCEFF2218
:100ADC00EDD2E7CD33EC3392D524814006E4FFFE12
:100AEC00FDFC22FCE4CFCECDCC24E0501174FF8071
:100AFC00EDC3CC13CCCD13CDCE13CECF13CF04700E
:070B0C00F030D5DE020C0BF6
:100E300033DA929E35B16011377FE5FE392184891E
:100E40003AAEC3FF3C1D955B3D6358473E75FDF0D0
:100E50003F3172183F800000C2D5020B52020B488E
:100E6000BD80FA50F3020B4FED33EC330460F17B9D
:100E70003B7AAA79B8783F1208F8ED33EC3392D573
:100E8000247B5011A2D570DB500BED44802404501C
:100E900004A2D580CEEFFBEEFAEDF9ECF8120ADCF5
:100EA000EFF582F404FC120AA8120807C082900E23
:100EB000307409120B6CED33CC33D0F092D525F0A1
:0A0EC000A2D57001C313CC13FD226C
:100B1300E9D2E7C933E833F892D5EDD2E7CD33EC28
:070B230033FC5002B2D522A1
:100B2A00EC30E7100FBF000C0EBE00080DBD00042C
:100B3A000BEB6014A2D5EB13FCED92E7FD2274FFD8
:100B4A00FCFDFEFF22E480F8A2D574FF13FC7D8031
:030B5A00E480EF45
:100B5D00C0E0EFFBEEFAEDF9ECF81208F8D0E0F595
:100B6D00F0EFFBEEFAEDF9ECF8120C19A3A3A3A329
:100B7D00E8C0E0E9C0E0EAC0E0EBC0E0C0F0120878
:100B8D00F8120C29A3A3A3A3120807D0F0D0E0FB01
:0D0B9D00D0E0FAD0E0F9D0E0F8D5F0D42295
:03000000020ECA23
:0C0ECA00787FE4F6D8FD758127020F1137
:100BAA00BB010689828A83E0225002E722BBFE0249
:090BBA00E32289828A83E493227C
:100BC300EF8DF0A4A8F0CF8CF0A428CE8DF0A42E46
:020BD300FE2200
:100BD500C2D5EC30E709B2D5E4C39DFDE49CFCEE3B
:100BE50030E715B2D5E4C39FFFE49EFE120C39C36E
:100BF500E49DFDE49CFC8003120C3930D507C3E469
:060C05009FFFE49EFE22A9
:0E0C0B00C3E49FFFE49EFEE49DFDE49CFC22FA
:100C1900E493FC740193FD740293FE740393FF2221
:100C2900E493F8740193F9740293FA740393FB2221
:100ED600020C8EE493A3F8E493A34003F68001F298
:100EE60008DFF48029E493A3F85407240CC8C3331D
:100EF600C4540F4420C8834004F456800146F6DFEC
:100F0600E4800B0102040810204080901098E47ED3
:100F1600019360BCA3FF543F30E509541FFEE493E0
:100F2600A360010ECF54C025E060A840B8E493A3A7
:100F3600FAE493A3F8E493A3C8C582C8CAC583CAD2
:100F4600F0A3C8C582C8CAC583CADFE9DEE780BE8A
:0110A400004B
:100C3900BC000BBE0029EF8DF084FFADF022E4CC9F
:100C4900F875F008EF2FFFEE33FEEC33FCEE9DEC68
:100C5900984005FCEE9DFE0FD5F0E9E4CEFD22EDAE
:100C6900F8F5F0EE8420D21CFEADF075F008EF2FF8
:100C7900FFED33FD4007985006D5F0F222C398FDE9
:050C89000FD5F0EA2286
:00000001FF
