:03000000020C13DC
:0C0C1300787FE4F6D8FD75813A020C5A97
:100DE000566F6C742E3A2000206D560054656D705D
:080DF0002E3A200020B0430060
:100E0E00C1000608000000000000060E00000000F1
:020E1E000000D2
:100D6000E4F5A0C282C280C2817F38FE120E211239
:100D70000DBC7F067E00120E21120DBC7F0C7E0082
:100D8000120E21120DBC7F017E00120E21120DBC2D
:070D90007F807E00020E21AE
:040DBC007F047E0032
:100DC000E4FDFCC3ED9FEC9E5015E4FBFA0BBB0069
:0F0DD000010ABA01F8BB7EF50DBD00010C80E4ED
:010DDF0022F1
:100B6D008E2B8F2C8B2D8A2E892F7C277D10120A90
:100B7D0012EF24301209DEAE2BAF2C7C277D101224
:100B8D000A127E037FE8CFCDCFCECCCE120A12EF64
:100B9D002430AB2DAA2EA92F9000011209F0AE2BF7
:100BAD00AF2C7C037DE8120A127E007F64CFCDCF7F
:100BBD00CECCCE120A12EF2430AB2DAA2EA92F9037
:100BCD0000021209F0AE2BAF2C7C007D64120A12CC
:100BDD007E007F0ACFCDCFCECCCE120A12EF2430BD
:100BED00AB2DAA2EA92F9000031209F0AE2BAF2C1E
:100BFD007C007D0A120A12ED2430AB2DAA2EA92FEE
:060C0D009000040209F052
:100E2100C280C281D2828FA07F0A7E00120DC0C211
:020E310082221B
:100E3300D280C281D2828FA07F0A7E00120DC0C2EF
:020E4300822209
:100D97008B2B8A2C892DAB2BAA2CA92D1209C56068
:100DA70013052DE52D7002052C14F91209C5FF1244
:050DB7000E3380E22272
:0C0E450075C33F43B104D2AF43C3402249
:080D04008F3A8E398D388C37CF
:100D0C00C2007810120A75E48FC53000FDA914C218
:100D1C0000AF3AAE39AD38AC377808120A758FC5CA
:100D2C003000FDAB14C200E53AFF8FC53000FDADBD
:100D3C0014EB7B00FA7E00E97810C333CE33CED8A7
:100D4C00F92BFFEE3AFE7C00EF2DFFEC3EFE3395C7
:030D5C00E0FDFCBB
:010D5F002271
:03004B00020DF8AB
:100DF800C0E0C0D0E5C454F02480700585C514D285
:060E080000D0D0D0E03262
:030E5100D2942216
:020C9F00AB07A1
:100CA100E4F532F531753001F52FEF75F010A47EC2
:100CB100005470FFEE3395E0FDFCEF4480FFED78CA
:100CC10008120A888F368E358D348C33E5322536FD
:100CD100FFE5313535FEE5303534FDE52F3533FCA3
:100CE100C294120D048F2E8E2D8D2C8C2BD294E557
:100CF1002EF52EE52D5403F52DE4F52CF52BAE2D17
:020D0100AF2E13
:010D030022CD
:100A9B00E4F521F522F523F524F525F526120E456F
:060AAB00120E51120D6055
:100AB1007F04120C9F8E278F287F03120C9F8E2993
:100AC1008F2AAC27AD28E412090B7B827A73794E09
:100AD10078401208001209448E238F24AC29AD2AD4
:100AE100E412090B7B827A73794E78401208001266
:100AF10009448E258F267B007A00790E120B6D7BBF
:100B0100007A007908AF26AE25120B6D7F017E00B9
:100B1100120E217F807E00120E217BFF7A0D79E07B
:100B2100120D977B007A007908120D977BFF7A0DE1
:100B310079E8120D977FC07E00120E217BFF7A0D9E
:100B410079EC120D97AF0A120E33AF0B120E337FF1
:100B51002E120E33AF0C120E337BFF7A0D79F41285
:090B61000D977F2C7E01120DC0DE
:030B6A00020AB1CB
:10080000EC4D6011E8497017ED33EC3304600DE4F2
:10081000FCFFFEFD22E933E8330470F80209B01250
:10082000097B58046009E4CC248150062850090251
:1008300009BA2840030209B7C0E0EB4A7044B98006
:1008400006D0E0FB0209A6EF4E701CBD8008EBFF4E
:10085000EAFEE9FD80EBE98DF0A4FEE5F00208E98F
:10086000E9CDF9EAFEEBFFEF89F0A4FCE5F0CE89D3
:10087000F0A42EFFE435F0CD89F0A42DFEE435F090
:100880008067EF4E7005BD80D780C3EF8BF0A4ACBE
:10089000F0EE8BF0A42CFCE435F0F8EF8AF0A42CF9
:1008A000E5F038FCE433CB8DF0A42CFCE5F03BF80C
:1008B000EE8AF0A42CFCE5F038F8E433CF89F0A4FC
:1008C0002CFCE5F038CF3400CE89F0A42FFFE5F002
:1008D0003EFEE433C98DF0A42EFEE5F039CD8AF05A
:1008E000A42FFFE5F03EFEE43DFD33D0E0FB5007D2
:1008F0000BBB000F0209BAEC2CFCEF33FFEE33FE0A
:06090000ED33FD02099237
:1009060075F020800E75F010800575F0087D007E6C
:10091600007F003392D530D503120A67EC334010BE
:10092600EF33FFEE33FEED33FDEC33FCD5F0ED2275
:0E093600E5F0247EA2D513CC92E7CDCEFF22B1
:10094400EDD2E7CD33EC3392D524814006E4FFFEAB
:10095400FDFC22FCE4CFCECDCC24E0501174FF800A
:10096400EDC3CC13CCCD13CDCE13CECF13CF0470A7
:07097400F030D5DE020A6736
:10097B00E9D2E7C933E833F892D5EDD2E7CD33ECC2
:07098B0033FC5002B2D5223B
:10099200EC30E7100FBF000C0EBE00080DBD0004C6
:1009A2000BEB6014A2D5EB13FCED92E7FD2274FF72
:1009B200FCFDFEFF22E480F8A2D574FF13FC7D80CB
:0309C200E480EFDF
:100C1F00020A9BE493A3F8E493A34003F68001F246
:100C2F0008DFF48029E493A3F85407240CC8C333D6
:100C3F00C4540F4420C8834004F456800146F6DFA5
:100C4F00E4800B0102040810204080900E0EE47E19
:100C5F00019360BCA3FF543F30E509541FFEE4939A
:100C6F00A360010ECF54C025E060A840B8E493A361
:100C7F00FAE493A3F8E493A3C8C582C8CAC583CA8C
:100C8F00F0A3C8C582C8CAC583CADFE9DEE780BE44
:010E200000D1
:1009C500BB010689828A83E0225002E722BBFE0230
:0909D500E32289828A83E4932263
:1009DE00BB010689828A83F0225002F722BBFE01F8
:0209EE00F322F2
:1009F000F8BB010DE58229F582E5833AF583E8F03D
:100A0000225006E92582C8F622BBFE05E92582C8E8
:020A1000F222D0
:100A1200BC000BBE0029EF8DF084FFADF022E4CCC8
:100A2200F875F008EF2FFFEE33FEEC33FCEE9DEC91
:100A3200984005FCEE9DFE0FD5F0E9E4CEFD22EDD7
:100A4200F8F5F0EE8420D21CFEADF075F008EF2F21
:100A5200FFED33FD4007985006D5F0F222C398FD12
:050A62000FD5F0EA22AF
:0E0A6700C3E49FFFE49EFEE49DFDE49CFC22A0
:100A7500E8600FECC313FCED13FDEE13FEEF13FF5F
:030A8500D8F12283
:100A8800E8600FEFC333FFEE33FEED33FDEC33FCCC
:030A9800D8F12270
:00000001FF
