:03000000020100FA
:0A010000313031B4514580FC80FE1F
:1001300075901F515AE59075F010A4F500C294D245
:1001400095515AE59064202500F500D294D295513E
:100150005AE59075F010A4F501C294C295D296515B
:100160005AE59064402501F501D294C295D296518A
:100170005AE59075F010A4F502C294D295D296512A
:100180005AE59064602502F502D294D295D2965138
:100190005AE59075F010A4F503C294C295C296D2A8
:1001A00097515AE59064802503F503C294C295C225
:1001B00096C29722E50094C0501BE5009480501031
:1001C000E50094405005750410800D7504208008EA
:1001D0007504408003750480E50194C0501BE5015F
:1001E00094805010E50194405005750510800D7500
:1001F000052080087505408003750580E50294C0E0
:10020000501BE50294805010E5029440500575069D
:1002100010800D75062080087506408003750680E5
:10022000E50394C0501BE50394805010E50394400F
:100230005005750710800D750720800875074080F0
:100240000375078022850490517185059051718551
:1002500006905171850790517122C016C01775170D
:10026000A07516C85188D516FBD517F5D017D0162E
:1002700022C016C0177517507516C85188D516FBC1
:10028000D517F5D017D01622C0167516F4D516FD61
:03029000D0162263
:00000001FF
