:100800002A2A2A2A2A2A2A2A2A2A2A2A2A2A2A2A48
:100810002A2A2A2A2A2A2A2A0D0A00507265737364
:10082000204120666F72204163636F756E7420648F
:100830006973706C617920616E64205720666F72F5
:10084000207769746864726177696E672063617389
:10085000680D0A0048656C6C6F2C20506C656173E4
:100860006520656E746572204163636F756E7420D8
:100870004E756D6265720D0A004163636F756E742B
:1008800020486F6C6465723A2053746576656E0D0E
:100890000A004163636F756E742042616C616E6320
:1008A000653A20000D0A004163636F756E7420483D
:1008B0006F6C6465723A20476F72646F6E0D0A0048
:1008C0004E6F2073756368206163636F756E742C5F
:1008D00020706C6561736520656E74657220766149
:1008E0006C69642064657461696C730D0A00456EFF
:1008F00074657220416D6F756E742C20696E20686E
:10090000756E647265647300496E737566666963BB
:1009100069656E742042616C616E63650052656D3D
:1009200061696E696E672042616C616E6365203A31
:100930002000353030204E6F746573203A2000203F
:1009400020313030204E6F746573203A2000576993
:100950007468647261772073746174652C20656EAD
:10096000746572206163636F756E74206E756D625D
:1009700065720D0A004E6F207375636820616363B2
:100980006F756E742065786973742C20706C656166
:10099000736520656E7465722076616C696420648D
:1009A000657461696C730D0A00496E636F727265DC
:1009B0006374206B657920707265737365640D0ACA
:0109C0000036
:04112B00C101C1003D
:10100F00E4F5A0C282C280C2817F38FE1210D512D1
:10101F0010967F067E001210D51210967F0C7E0060
:10102F001210D51210967F017E001210D512109655
:07103F007F807E000210D546
:041096007F047E0055
:10109A00E4FDFCC3ED9FEC9E5015E4FBFA0BBB008C
:0F10AA00010ABA01F8BB7EF50DBD00010C80E410
:0110B9002214
:1010D500C280C281D2828FA07F0A7E0012109AC27E
:0210E500822265
:1010E700D280C281D2828FA07F0A7E0012109AC25C
:0210F700822253
:101071008B0D8A0E890FAB0DAA0EA90F1209C16043
:1010810013050FE50F7002050E14F91209C1FF12C5
:0510910010E780E222DF
:100D3E008E088F098B0A8A0B890C7C277D10120A6C
:100D4E004DEF2430120A07AE08AF097C277D101232
:100D5E000A4D7E037FE8CFCDCFCECCCE120A4DEF1B
:100D6E002430AB0AAA0BA90C900001120A19AE0886
:100D7E00AF097C037DE8120A4D7E007F64CFCDCF94
:100D8E00CECCCE120A4DEF2430AB0AAA0BA90C9092
:100D9E000002120A19AE08AF097C007D64120A4DDA
:100DAE007E007F0ACFCDCFCECCCE120A4DEF2430AF
:100DBE00AB0AAA0BA90C900003120A19AE08AF09D0
:100DCE007C007D0A120A4DED2430AB0AAA0BA90C49
:060DDE00900004020A1956
:1010F900758920758DCC759850D28ED2ACD2AF221D
:081123008F993001FDC2012289
:061046007BFF7A0879929D
:10104C008B528A538954AB52AA53A9541209C160CA
:10105C00130554E5547002055314F91209C1FF121B
:05106C00112380E222C7
:09111900E4FF3000FDC200AF99B3
:0111220022AA
:03002300021109BE
:10110900309905C299D20132309804C298D200327E
:060F46008B528A5389540E
:100F4C00E4F555F556F557F558F557F558AB52AA43
:100F5C0053A9548558828557831209DA602424D00A
:100F6C00FBE434FFFAAE55AF567C007D0A120A3B07
:100F7C00EF2BF556EE3AF5550558E55870CF055759
:060F8C0080CBAE55AF560C
:010F9200223C
:050C5D00FFAEF07B007A
:0A0C62008E528F538B548A55895629
:100C6C00E4F557F558F559F55AD3E5539400E55288
:100C7C00648094804039AE52AF537C007D0A120AD6
:100C8C00A2ED2430FFAB54AA55A9560558E558AC33
:100C9C00577002055714F5828C83EF120A19AE5265
:100CAC00AF537C007D0A120AA28E528F5380BAE495
:100CBC00F559F55AAE57AF587C007D02120AA2C303
:100CCC00E55A9FEE6480F8E5596480985054AB5413
:100CDC00AA55A956855A828559831209DAF55BC340
:100CEC00E558955ACFE5579559CF24FFCF34FF8F50
:100CFC0082F5831209DA855A82855983120A19C33F
:100D0C00E558955ACFE5579559CF24FFCF34FF8F2F
:100D1C0082F583E55B120A19055AE55A7096055956
:100D2C008092AB54AA55A956855882855783E40204
:020D3C000A1992
:100F9300C3EF94F4EE648094814011E475F0011280
:100FA3000B03740C2FFF74FE3EFE80E4D3EF94001A
:100FB300EE648094804017AB57AA58A959E475F0A2
:0F0FC30001120B03749C2FFF74FF3EFE80DE2291
:1010BA007BFF7A08790012104C7BFF7A08791B12A1
:0B10CA00104C7BFF7A08790002104CEC
:100E7000120AD87A00792C120C5DAB29AA2AA92B68
:100E8000120AD87A007933120C5D7BFF7A08795404
:100E900012104C121119EF24CE60170470317BFF31
:100EA0007A08797912104C1210467B007A00792C5E
:100EB00080127BFF7A0879A712104C1210467B0033
:100EC0007A00793312104C7BFF7A0879A480067B74
:0B0ED000FF7A0879C012104C0210BA23
:060B70008B2D8A2E892F57
:100B7600E4F539F53AF53BF53C7BFF7A0879EE1258
:100B8600104C1211198F301211198F317B007A0017
:100B96007930120F467C007D64120A3B8E378F38FF
:100BA60075570075580075593B7B007A00793912E4
:100BB6000F937B007A00793DAF3AAE39120C627B17
:100BC600007A007944AF3CAE3B120C62AB2DAA2EE4
:100BD600A92F120AD8FDACF0D3E5389DEC6480F855
:100BE600E53764809840087BFF7A0979088064AB12
:100BF6002DAA2EA92FC3ED9538FFEC95378FF0124D
:100C06000B3BAB2DAA2EA92F120AD8FFAEF07B0004
:100C16007A00794B120C627BFF7A09791D12104C0F
:100C26007B007A00794B12104C7BFF7A0879A4126C
:100C3600104C7BFF7A09793212104C7B007A0079CE
:100C46003D12104C7BFF7A09793F12104C7B007ADB
:060C560000794412104C6D
:010C5C002275
:060FD2008B268A27892806
:100FD8007BFF7A09794E12104C1211198F2CE52CCF
:100FE800B43108AB26AA27A928800BE52CB4320B0C
:100FF800AB29AA2AA92B120B7080097BFF7A0979E1
:071008007512104C0210BA32
:100EDB00752127752210752327752410E4F525122B
:100EEB0010F91210BA1211198F25E52524A96022C9
:100EFB0024F6600A24EA601C2436702C80007529C5
:100F0B0000752A00752B237B007A007921120E7055
:100F1B0080228000752900752A00752B237B007AAF
:100F2B00007921120FD2800C7BFF7A0979A912105C
:0B0F3B004C1210BA1211198F2580AA69
:03000000020DE40A
:0C0DE400787FE4F6D8FD75815B020E2BD1
:1009C100BB010689828A83E0225002E722BBFE0234
:0909D100E32289828A83E4932267
:1009DA00BB010CE58229F582E5833AF583E02250D2
:1009EA0006E92582F8E622BBFE06E92582F8E2221C
:0D09FA00E58229F582E5833AF583E4932236
:100A0700BB010689828A83F0225002F722BBFE01CE
:020A1700F322C8
:100A1900F8BB010DE58229F582E5833AF583E8F013
:100A2900225006E92582C8F622BBFE05E92582C8BF
:020A3900F222A7
:100A3B00EF8DF0A4A8F0CF8CF0A428CE8DF0A42ECF
:020A4B00FE2289
:100A4D00BC000BBE0029EF8DF084FFADF022E4CC8D
:100A5D00F875F008EF2FFFEE33FEEC33FCEE9DEC56
:100A6D00984005FCEE9DFE0FD5F0E9E4CEFD22ED9C
:100A7D00F8F5F0EE8420D21CFEADF075F008EF2FE6
:100A8D00FFED33FD4007985006D5F0F222C398FDD7
:050A9D000FD5F0EA2274
:100AA200C2D5EC30E709B2D5E4C39DFDE49CFCEE6F
:100AB20030E715B2D5E4C39FFFE49EFE120A4DC390
:100AC200E49DFDE49CFC8003120A4D30D507C3E48B
:060AD2009FFFE49EFE22DE
:100AD800BB010A89828A83E0F5F0A3E022500687E9
:100AE800F009E71922BBFE07E3F5F009E3192289AB
:0B0AF800828A83E493F5F074019322DE
:100B0300BB010789828A83020B5A500B09C5F02760
:100B1300F7C5F01937F722BBFE0D09F8E325F0F30B
:100B2300C5F019E338F322F889828A837401932587
:080B3300F0C5F0F8E49338224C
:100B3B00BB010A89828A83F0E5F0A3F0225006F705
:0F0B4B0009A7F01922BBFE06F3E5F009F3192202
:100DF000020EDBE493A3F8E493A34003F68001F230
:100E000008DFF48029E493A3F85407240CC8C33303
:100E1000C4540F4420C8834004F456800146F6DFD2
:100E2000E4800B010204081020408090112BE47E26
:100E3000019360BCA3FF543F30E509541FFEE493C7
:100E4000A360010ECF54C025E060A840B8E493A38E
:100E5000FAE493A3F8E493A3C8C582C8CAC583CAB9
:100E6000F0A3C8C582C8CAC583CADFE9DEE780BE71
:01112F0000BF
:100B5A00C5F0F8A3E028F0C5F0F8E5821582700226
:060B6A001583E038F022C3
:00000001FF
